:100000000C94EB000C9498020C9471020C9401086F
:100010000C9413010C94B1070C9413010C9413016C
:100020000C9413010C9413010C9413010C94F6031B
:100030000C9413010C9413010C9413010C941301F0
:100040000C94D8100C9413010C94E5020C94BF028C
:100050000C9413010C9413010C9413010C941301D0
:100060000C9413010C941301B013C615A116CC16F1
:10007000F7163C176414DE14AC15005EBCE2613F59
:10008000DD83C29C7E20A3FD1F419DC3217FFCA276
:10009000401E5F01E3BD3E6082DC237D9FC1421CA8
:1000A000FEA0E1BF5D0380DE3C62BEE0025CDF815A
:1000B000633D7C22C09E1D43A1FF4618FAA4277908
:1000C0009BC584DA3866E5BB5907DB856739BAE436
:1000D00006581947A5FB7826C49A653BD987045A68
:1000E000B8E6A7F91B45C6987A24F8A6441A99C71A
:1000F000257B3A6486D85B05E7B98CD2306EEDB3C8
:10010000510F4E10F2AC2F7193CD114FADF3702EF5
:10011000CC92D38D6F31B2EC0E50AFF1134DCE9027
:10012000722C6D33D18F0C52B0EE326C8ED0530DD9
:10013000EFB1F0AE4C1291CF2D73CA947628ABF587
:1001400017490856B4EA6937D58B5709EBB53668B5
:100150008AD495CB2977F4AA4816E9B7550B88D6E7
:10016000346A2B7597C94A14F6A8742AC896154B99
:10017000A9F7B6E80A54D7896B35000000002400BF
:1001800027002A0000000000250028002B000000A6
:1001900000002300260029000404040404040404CD
:1001A0000202020202020303030303030102040822
:1001B00010204080010204081020010204081020D1
:1001C0000000000800020100000304070000000016
:1001D00000000000591811241FBECFEFD8E0DEBF89
:1001E000CDBF11E0A0E0B1E0E8EAF6E302C005907F
:1001F0000D92A23EB107D9F727E0A2EEB1E001C00F
:100200001D92A637B207E1F710E0CBEED0E004C0B4
:100210002197FE010E94331BCA3ED107C9F70E94F5
:1002200022110C94521B0C9400000895CF92DF927F
:10023000EF92FF920F931F93CF93DF936C017A019C
:100240008B01C0E0D0E0CE15DF0581F0D8016D91C3
:100250008D01D601ED91FC910190F081E02DC60158
:100260000995892B11F02196EECF7E01C701DF9110
:10027000CF911F910F91FF90EF90DF90CF90089555
:10028000089580E090E00895FC01538D448D252F62
:1002900030E0842F90E0821B930B541710F0CF9620
:1002A000089501970895FC01918D828D981761F052
:1002B000828DDF01A80FB11D5D968C91928D9F5F9D
:1002C0009F73928F90E008958FEF9FEF0895FC0148
:1002D000918D828D981731F0828DE80FF11D858DFB
:1002E00090E008958FEF9FEF0895FC01918D228D8E
:1002F000892F90E0805C9F4F821B91098F73992713
:1003000008958CE393E00E94750121E0892B09F4A4
:1003100020E0822F0895FC01848DDF01A80FB11D1C
:10032000A35ABF4F2C91848D90E001968F7399272B
:10033000848FA689B7892C93A089B1898C91837009
:1003400080648C93938D848D981306C00288F38902
:10035000E02D80818F7D80830895EF92FF920F932F
:100360001F93CF93DF93EC0181E0888F9B8D8C8D61
:10037000981305C0E889F989808185FD26C0F62E8D
:100380000B8D10E00F5F1F4F0F731127E02E8C8D28
:10039000E8120CC00FB607FCFACFE889F989808112
:1003A00085FFF5CFCE010E948B01F1CF8B8DFE0131
:1003B000E80FF11DE35AFF4FF0829FB7F8940B8FBF
:1003C000EA89FB89808180620AC09FB7F894EE8930
:1003D000FF896083E889F9898081837080648083E4
:1003E0009FBF81E090E0DF91CF911F910F91FF902F
:1003F000EF900895CF93DF93EC01888D8823C9F0A7
:10040000EA89FB89808185FD05C0A889B9898C911D
:1004100086FD0FC00FB607FCF5CF808185FFF2CFB8
:10042000A889B9898C9185FFEDCFCE010E948B01FF
:10043000E7CFDF91CF91089580E090E0892B29F0FC
:100440000E94810181110C94000008950E944D1BAF
:100450000F931F93CF93DF931F92CDB7DEB78C011D
:10046000FC0111821282138214821582168240E0EE
:1004700060EF80810E944C0CF801428164EF808122
:100480000E944C0CF801448166EF80810E944C0C64
:10049000F801458167EF80810E944C0CAE014F5FEF
:1004A0005F4F61E0F80180810E94830B182F882341
:1004B00089F08FE691E00E94A40E812F90E0A0E0E9
:1004C000B0E04AE0BC01CD010E94A60E8BE791E0AE
:1004D0000E94670A812F0F90DF91CF911F910F919A
:1004E00008951F920F920FB60F9211242F933F93EE
:1004F0004F935F936F937F938F939F93AF93BF932C
:10050000EF93FF93E0910201F09103010995FF91B0
:10051000EF91BF91AF919F918F917F916F915F917B
:100520004F913F912F910F900FBE0F901F901895F4
:100530001F920F920FB60F9211242F933F934F9358
:100540005F936F937F938F939F93AF93BF93EF933B
:10055000FF93E0910001F09101010995FF91EF9166
:10056000BF91AF919F918F917F916F915F914F91CB
:100570003F912F910F900FBE0F901F9018951F92D3
:100580000F920FB60F9211242F933F934F935F93C7
:100590006F937F938F939F93AF93BF93EF93FF934B
:1005A0008CE393E00E948B01FF91EF91BF91AF919B
:1005B0009F918F917F916F915F914F913F912F917B
:1005C0000F900FBE0F901F9018951F920F920FB6AD
:1005D0000F9211242F938F939F93EF93FF93E091AA
:1005E0004C03F0914D038081E0915203F09153034D
:1005F00082FD12C09081809155038F5F8F7320918F
:100600005603821751F0E0915503F0E0E45CFC4F93
:10061000958F8093550301C08081FF91EF919F9149
:100620008F912F910F900FBE0F901F901895CF9222
:10063000DF92EF92FF92CF93DF93EC01603282E082
:1006400078070CF03DC077FD06C0653B71052CF0C6
:1006500064EB70E002C060E070E0898128E830E07F
:100660006901C81AD10887FDD394CC0CDD1CCC0CD1
:10067000DD1C0D2C000CEE08FF088A8128E532E015
:10068000281B310987FD3395220F331F220F331F9B
:10069000C901330FAA0BBB0B9C01AD012C193D09FD
:1006A0004E095F09DB010E94D21824EB30E040E0E4
:1006B00050E00E94A818C20ED31EE41EF51EB6011B
:1006C00038813C3080F5298188E890E0821B9109CF
:1006D00027FD9395880F991F880F991F6817790731
:1006E00084F08A8148E552E0481B510987FD539503
:1006F000440F551F440F551FCB01461757070CF4E5
:10070000CA010297880F991F4FB7F894232F30E042
:10071000F901EE0FFF1F2E0F3F1FF901E354F94FB0
:10072000928381834FBFDF91CF91FF90EF90DF9055
:10073000CF9008951F93CF93DF93EC01162F8881FC
:100740008C3008F04EC061E0812F0E94D90F888163
:10075000E82FF0E09F01220F331FE20FF31FE35455
:10076000F94F1F739081907C192B108319821A8284
:100770006CE00E94131B9CE0899FB001112440E0B3
:1007800050E09B01240F351FF901EE0FFF1F2E0FC4
:100790003F1FF901E354F94F908196FD16C04F5F5A
:1007A0005F4F4C30510569F781110FC010928000E6
:1007B00082E0809381001092850010928400B19AAB
:1007C00080916F00826080936F00E881F0E0CF013C
:1007D000880F991FE80FF91FE354F94F8081806457
:1007E00080838881DF91CF911F9108951F920F928E
:1007F0000FB60F9211242F933F934F935F936F93F4
:100800007F938F939F93AF93BF93EF93FF938091C9
:10081000140387FF05C010928500109284001BC04E
:1008200020911403022E000C330B8091150390E0ED
:100830002817390784F480911403082E000C990BB3
:10084000FC01EE0FFF1F8E0F9F1FFC01E354F94FB9
:10085000808186FD15C0809114038F5F80931403FF
:1008600020911403022E000C330B8091150390E0AD
:1008700028173907C4F4809114038C3064F113C035
:1008800080911403082E000C990BFC01EE0FFF1F42
:100890008E0F9F1FFC01E354F94F808160E08F733E
:1008A0000E94AA0FD8CF8091840090918500049671
:1008B00080349C4918F480E49CE905C08091840050
:1008C00090918500049690938900809388008FEF23
:1008D000809314033BC02091840030918500809167
:1008E0001403082E000C990BFC01EE0FFF1F8E0F56
:1008F0009F1FFC01E354F94F81819281820F931F66
:10090000909389008093880080911403082E000C36
:10091000990BFC01EE0FFF1F8E0F9F1FFC01E3548C
:10092000F94F808186FF12C080911403082E000CBD
:10093000990BFC01EE0FFF1F8E0F9F1FFC01E3546C
:10094000F94F808161E08F730E94AA0FFF91EF91B0
:10095000BF91AF919F918F917F916F915F914F91D7
:100960003F912F910F900FBE0F901F9018957F927F
:100970008F929F92AF92BF92CF92DF92EF92FF92AF
:100980000F931F93CF93DF93EC01762E942E052FB8
:10099000822EE42EF52E82EEA82E82E0B82ED5010E
:1009A000E42FF52FC22ED12CCD01825E92408C1502
:1009B0009D051CF481918D93F7CF1E8111113CC0D0
:1009C0000E94CC106093DE027093DF028093E002FD
:1009D0009093E102088110921A030E94400B8093C9
:1009E0001A03811125C0802F880F0E94F70A809377
:1009F0001A0381111DC081E001C0880F7A94EAF7C3
:100A00000E94E20B80931A03811112C000E080164D
:100A100059F0D5018D915D010E94E20B80931A037C
:100A2000811106C00F5FF3CF0E94CC0A80931A0396
:100A30008E818F5F8E8345C042EE52E0682D8881A3
:100A40000E94830BE92DF02FA2EEB2E081E09D0120
:100A5000225E32402C153D0534F42D9191912917D9
:100A6000B1F380E0F4CF8823D9F00E94CC1000913C
:100A7000DE021091DF022091E0023091E102DC0100
:100A8000CB01801B910BA20BB30B893C9105A105F7
:100A9000B105A0F01E828EE791E00E94790A0EC097
:100AA0001E82E2EEF2E0CF01825E92408C159D053F
:100AB0003CF48191D7018D937D01F5CF10E001C009
:100AC00011E0812FDF91CF911F910F91FF90EF9057
:100AD000DF90CF90BF90AF909F908F907F900895C0
:100AE0002F923F924F925F926F927F928F929F923E
:100AF000AF92BF92CF92DF92EF92FF920F931F932C
:100B0000CF93DF93CDB7DEB7A1970FB6F894DEBFD2
:100B10000FBECDBF7C015B018E010F5F1F4FCE0169
:100B20008196F80120E82193E817F907E1F720E220
:100B3000A801F7016281808191810E94B70481112F
:100B400002C080E093C0B501C7010E947005F801A2
:100B500090E0208126FD02C080E001C084E025FFF6
:100B600002C0826001C08D7F24FF02C0816001C08D
:100B70008E7F9813E6CF9F5F3496983051F76501CA
:100B8000FEE0EF0EF11C1E0189E1280E311C19A2B6
:100B9000F8018181809319038281809318038381F6
:100BA000809317038091160390911703A091180367
:100BB000B0911903892F9A2FAB2FBB27A7FDBA95A8
:100BC0008093160390931703A0931803B09319030F
:100BD0006091160370911703809118039091190387
:100BE0000E94F11920E030E040E054E30E94A61A90
:100BF0004B015C01F60161937193819391936F01B5
:100C0000F70120813181428153810E940B192B0110
:100C10003C0120E030E0A9010E94A11A18165CF402
:100C20002DEC3CEC4CE45EE3C301B2010E94A11A3E
:100C300018165CF00CC02DEC3CEC4CE45EEBC301F0
:100C4000B2010E94781987FF02C0F1E0F9A3F70111
:100C500081929192A192B1927F010C5F1F4F021578
:100C6000130509F095CF81E0F9A18F27A1960FB662
:100C7000F894DEBF0FBECDBFDF91CF911F910F91D2
:100C8000FF90EF90DF90CF90BF90AF909F908F90AC
:100C90007F906F905F904F903F902F900895FC0150
:100CA0005281411109C02EEF30E001C0220F6A9538
:100CB000EAF72523228308C081E090E001C0880F75
:100CC0006A95EAF7852B8283428164EF80810C94D8
:100CD0004C0C1F93CF93DF93EC0180EC8093D902EF
:100CE0001092DA021092DB0272FF03C080ED809353
:100CF000D9028091D90271FF02C0886001C0877F4C
:100D00008093D9028091D90270FF02C0846001C033
:100D10008B7F8093D9028091D90267FF02C08260E5
:100D200001C08D7F8093D9028091D90266FF02C0F5
:100D3000816001C08E7F8093D90265FF03C080E887
:100D40008093DA028091DA0264FF02C0806401C0FD
:100D50008F7B8093DA028091DA0263FF02C08062A7
:100D600001C08F7D8093DA028091DA0262FF02C0B7
:100D7000806101C08F7E8093DA028091DA0261FF88
:100D800002C0886001C0877F8093DA028091DA0216
:100D900060FF02C0846001C08B7F8093DA026AE04A
:100DA00070E080E090E00E94921041E06A818881CA
:100DB00099810E944F0623E049ED52E06B818881C2
:100DC00099810E94B704182F40E06A818881998137
:100DD0000E944F06112319F39091DA0291FF02C08D
:100DE00080E801C080E090FF02C0806401C08F7B7A
:100DF0009091DB0297FF02C0806201C08F7D96FF59
:100E000002C0806101C08F7E95FF02C0886001C072
:100E1000877F94FF02C0846001C08B7F93FF02C074
:100E2000826001C08D7F92FF02C0816001C08E7F11
:100E3000DF91CF911F910895CF93DF93EC01862F1F
:100E400090E021E030E0F90101C0EE0F6A95EAF789
:100E50006E2F60955C8156235C83BC01660F771F03
:100E60008CEF90E0062E01C0880F0A94EAF79D816E
:100E700089238D83442361F0E52BEC83413011F00D
:100E800022E030E001C0220F6A95EAF7822B8D83C1
:100E90004C8166EF88810E944C0C4D8167EF888100
:100EA000DF91CF910C944C0CAF92BF92CF92DF9216
:100EB000FF920F931F93CF93DF93EC018B015A01A5
:100EC00041E06A81888199810E941C0740E06B8122
:100ED000888199810E941C0740E06A8188819981FC
:100EE0000E944F06680100E010E0F12CB801CE012D
:100EF0000A151B0549F00E946906F60181936F01EE
:100F0000F8260F5F1F4FF2CF0E9469069FEF9F0DDB
:100F10009E3F10F411E0F81210E040E06A818881F1
:100F200099810E941C0740E06B81888199810E9411
:100F30001C0788E891E00E94A40E112319F08FE8A5
:100F400091E002C084E991E00E94A40E812FDF911C
:100F5000CF911F910F91FF90DF90CF90BF90AF90F6
:100F600008951F920F920FB60F9211241F932F9383
:100F70003F934F935F936F937F938F939F93AF9321
:100F8000BF93CF93DF93EF93FF9387E00E94810F8E
:100F9000182F8091DD02181701F11130E1F48091D2
:100FA000FA018F5F8093FA018091FA0163E00E9459
:100FB000131B9093FA01C091FA01D0E00E946D10CA
:100FC00023E0CC0FDD1F2A95E1F7CE51DE4F688379
:100FD00079838A839B831093DD02FF91EF91DF91E8
:100FE000CF91BF91AF919F918F917F916F915F91C1
:100FF0004F913F912F911F910F900FBE0F901F9017
:1010000018951F920F920FB60F9211241F932F93D2
:101010003F934F935F936F937F938F939F93AF9380
:10102000BF93CF93DF93EF93FF9389E00E94810FEB
:10103000182F8091DC02181701F11130E1F4809132
:10104000FB018F5F8093FB018091FB0163E00E94B5
:10105000131B9093FB01C091FB01D0E00E946D1027
:1010600023E0CC0FDD1F2A95E1F7CE51DE4F6C83D4
:101070007D838E839F831093DC02FF91EF91DF913C
:10108000CF91BF91AF919F918F917F916F915F9120
:101090004F913F912F911F910F900FBE0F901F9076
:1010A0001895CF93C82F682F8CE393E00E94AD0171
:1010B0008091E206C827C093E206CF9108950F936E
:1010C0001F93CF938C01C62FCC2339F0F801819167
:1010D0008F010E945108C150F7CFCF911F910F91FE
:1010E00008951F93CF93DF93EC01162F662311F021
:1010F0008CE201C088E288838BE991E00E94A40E13
:10110000111103C08EE991E002C081EA91E00E94D2
:10111000A40ECE010E942802811125C0FE01E25BCF
:10112000FF4FD183C083128282E083834CE150E081
:10113000BE016F5C7F4FCF010E945407882341F0AE
:1011400089A99AA9019731F084EA91E00E94790A6D
:1011500010E001C011E041E0BE01CE0107960E94FF
:10116000850C81110BC088EA91E00E94790A8DE715
:1011700091E0DF91CF911F910C94790A112399F39B
:10118000C35BDF4F81E088838FED91E0EECFCF929C
:10119000DF92EF92FF920F931F93CF93DF93EC01B7
:1011A0006B017A018C010E5A1F4FB80107960E94FD
:1011B00070058823A1F1FE01EF5BFF4F2081318193
:1011C00042815381F80160817181828193810E9403
:1011D0000C19FE01FD9620813181428153810E94CC
:1011E000A61AF6016083718382839383FE01EE5910
:1011F000FF4F29AD3AAD4BAD5CAD6081718182810D
:1012000093810E940C192DA93EA94FA958AD0E94A7
:10121000A61AF701608371838283938381E0DF9153
:10122000CF911F910F91FF90EF90DF90CF90089595
:101230008F929F92AF92BF92CF92DF92EF92FF92E6
:101240001F93CF93DF93EC01162F662311F08DE2ED
:1012500001C089E289838AEA91E00E94A40E1111FB
:1012600003C08EE991E002C081EA91E00E94A40EE1
:101270007E018FEFE81AF80AC7010E942802811147
:101280005BC0FE01EC52FF4FF182E082128282E0ED
:1012900083834DE950E0BE016A5C7F4FCF010E941D
:1012A0005407182F2FE632E143E85AE36AAD7BADCD
:1012B0008CAD9DAD0E94A61AFE01FE962081318163
:1012C000428153810E94A61A4B015C016E01E2E447
:1012D000CE0ED11CF601608170E080E090E00E94AB
:1012E000F1199B01AC01C501B4010E94A61A2AE9BB
:1012F00039E949E95FE30E94A61A688779878A87F6
:101300009B87111105C08DEA91E00E94790A0BC0FC
:101310008EA99FA9029731F084EA91E00E94790A90
:1013200010E001C011E0F6014081B701CE010C963A
:101330000E94850C811113C088EA91E00E94790A0D
:101340008DE791E0DF91CF911F91FF90EF90DF90BB
:10135000CF90BF90AF909F908F900C94790A1123FB
:1013600059F3CD52DF4F81E088838FED91E0E6CFD6
:101370002F923F924F925F926F927F928F929F92A5
:10138000AF92BF92CF92DF92EF92FF920F931F9393
:10139000CF93DF9300D000D000D0CDB7DEB78C0163
:1013A0006B837C831A01BA010C960E947005882316
:1013B00009F474C0F8011082C084D184E284F384FB
:1013C0002601370177FA709477F870949101285EBE
:1013D0003F4F3A8329833E822D82ED81FE818190A9
:1013E0009190A190B190FE83ED83A7019601C50174
:1013F000B4010E94A11A181644F0A3019201C5017C
:10140000B4010E94781987FF03C021E0F80120830E
:101410008D819E81E981FA818E179F07F1F6FB810C
:10142000FD832C812E830D5B1F4FAD80BE8038E184
:10143000A30EB11CED81FE811082118212821382F3
:1014400068017101F70161917191819191917F0121
:10145000F60121913191419151916F010E94A61A9B
:101460009B01AC01ED81FE8160817181828193815C
:101470000E940C19ED81FE816083718382839383C6
:1014800029813A81E216F306E9F63496FE83ED836C
:10149000085E1F4FEA15FB0569F681E026960FB638
:1014A000F894DEBF0FBECDBFDF91CF911F910F919A
:1014B000FF90EF90DF90CF90BF90AF909F908F9074
:1014C0007F906F905F904F903F902F90089500977E
:1014D00069F0FC0101900020E9F73197AF01481B4A
:1014E000590BBC018CE393E00C94160180E090E072
:1014F0000895CF93DF930E94670AEC018BE791E098
:101500000E94670A8C0F9D1FDF91CF910895ECEB2D
:10151000F0E0108284E4808382EB91E00C94790AFD
:10152000CF92DF92EF92FF92CF93C82F0E94CC1000
:101530006B017C01CC2311F084EC01C084E8809322
:10154000BC008091BC0087FD11C00E94CC10DC0162
:10155000CB018C199D09AE09BF0980359105A10504
:10156000B10578F30E94870A81E010C08091B9002C
:10157000887F883341F48091B900C82FC87F0E94CA
:10158000870A8C2F03C08091B900887FCF91FF908C
:10159000EF90DF90CF900895CF92DF92EF92FF927D
:1015A0000E94CC106B017C0184E98093BC00909177
:1015B000BC00892F807194FF11C00E94CC10DC0107
:1015C000CB018C199D09AE09BF0980359105A10594
:1015D000B10568F30E94870A81E004C0EBECF7E0F4
:1015E0003197F1F7FF90EF90DF90CF900895CF9271
:1015F000DF92EF92FF92CF938093BB000E94CC10BA
:101600006B017C0184E88093BC008091BC0087FD65
:1016100011C00E94CC10DC01CB018C199D09AE09D0
:10162000BF0980359105A105B10578F30E94870AAD
:1016300081E020C08091B900887F883129F08091B5
:10164000B900887F803411F480E014C08091B90023
:10165000C82FC87F8091B900887F803229F080919F
:10166000B900887F883419F40E94CC0A02C00E9415
:10167000870A8C2FCF91FF90EF90DF90CF90089545
:10168000CF92DF92EF92FF92CF930E94CC106B012A
:101690007C0184EA8093BC008091BC0087FD11C06E
:1016A0000E94CC10DC01CB018C199D09AE09BF0949
:1016B00080359105A105B10578F30E94870A81E084
:1016C0001CC08091B900887F883029F08091B900D2
:1016D000887F803111F480E010C08091B900887F4C
:1016E000883341F48091B900C82FC87F0E94870ACF
:1016F0008C2F03C08091B900887FCF91FF90EF902D
:10170000DF90CF900895EF92FF920F931F93CF93A6
:10171000DF93C82FD62F7A011092BC06611101C049
:10172000D1E08FEF8D0F80931B0310921A030E945C
:10173000400B80931A0381113EC08C2F880F8F5F5E
:101740000E94F70A80931A03882321F0813099F5CB
:1017500085E031C08701C0E080911B038C1318C065
:1017600080E00E94900A80931A03813011F486E091
:1017700022C0883501F58091BB00F80181938F016B
:10178000CF5FC093BC06C093BB06DC13E5CF0AC095
:1017900081E00E94900A80931A03813041F38035E2
:1017A00051F309C00E94CC0A80931A03882319F0D0
:1017B000813009F487E0DF91CF911F910F91FF9065
:1017C000EF900895CF92DF92EF92FF92CF938093A4
:1017D000BB000E94CC106B017C0184E88093BC00AC
:1017E0008091BC0087FD11C00E94CC10DC01CB01B0
:1017F0008C199D09AE09BF0980359105A105B10578
:1018000078F30E94870A81E016C08091B900887F32
:10181000883281F08091B900C82FC87F8091B900CB
:10182000887F803319F40E94CC0A02C00E94870A84
:101830008C2F01C080E0CF91FF90EF90DF90CF9090
:101840000895CF93C82F10921A030E94400B8093E3
:101850001A0381111FC080E30E94F70A80931A03C4
:10186000882321F08130B1F482E014C08C2F0E94D3
:10187000E20B80931A03882321F0813059F483E02E
:1018800009C00E94CC0A80931A03882319F0813082
:1018900009F487E0CF9108951F93CF93DF93182F1A
:1018A000D62FC42F10921A030E94400B80931A0364
:1018B000811127C0812F880F0E94F70A80931A0395
:1018C000882321F08130E9F482E01BC08D2F0E9433
:1018D000E20B80931A03882321F0813091F483E096
:1018E00010C08C2F0E94E20B80931A038111F5CF58
:1018F0000E94CC0A80931A03882319F0813009F4DE
:1019000087E0DF91CF911F9108958F929F92AF92C0
:10191000BF92EF92FF920F931F93CF93DF9300D06C
:1019200000D0CDB7DEB78C01CB01F42EF801718366
:10193000608321E0228322E0238323E02483458304
:1019400040E061E00E941C0742E0F8016381808171
:1019500091810E941C0741E0F8016481808191819E
:101960000E941C0740E0F8016481808191810E94FF
:101970004F0664E670E080E090E00E94921041E043
:10198000F8016481808191810E944F0681E98B83F7
:101990001C820E94CC104B015C010E94CC10DC0127
:1019A000CB0188199909AA09BB0984369105A105BB
:1019B000B10508F4BBC08B81803231F48C81843254
:1019C00049F08DEB91E002C086EC91E00E94790A2B
:1019D00080E0B9C081E18B8384E78C8322E0AE0193
:1019E0004D5F5F4FF8016281808191810E94B70451
:1019F0008823A1F3E12C80E4B82E90E8A92E20ECF6
:101A0000922EEB82F2E0FF1679F0FF1528F081E0CC
:101A1000F8120EC01C8211C0E4E0FE1639F0F8E0A6
:101A2000FF1206C09C8209C0BC8207C0AC8205C000
:101A30001C8282ED91E00E94790A22E0AE014D5FA6
:101A40005F4FF8016281808191810E94B7048823F1
:101A5000A1F3E394F8E0EF12D4CF85E593E0A0E0A2
:101A6000B0E08093160390931703A0931803B093EC
:101A7000190380E68983809117038A8322E0AE01EF
:101A80004F5F5F4FF8016281808191810E94B704AE
:101A90008823A1F381E68983809116038A8322E05B
:101AA000AE014F5F5F4FF8016281808191810E949A
:101AB000B7048823A1F384E6898381E08A8322E046
:101AC000AE014F5F5F4FF8016281808191810E947A
:101AD000B7048823A1F364E670E080E090E00E9400
:101AE000921084E689831A8222E0AE014F5F5F4F35
:101AF000F8016281808191810E94B7048823A1F35B
:101B000083E18B8380E98C8322E0AE014D5F5F4FE0
:101B1000F8016281808191810E94B7048823A1F33A
:101B20008BED91E00E94790A81E00DC022E0AE01C8
:101B30004D5F5F4FF8016281808191810E94B704FF
:101B4000811139CF2ACF0F900F900F900F90DF9116
:101B5000CF911F910F91FF90EF90BF90AF909F900A
:101B60008F9008958091BC06882359F0E091BB06C0
:101B70009FEF980F9093BC06E81BF0E0E65EFC4FE9
:101B8000828108951092BC0610921B0310921A03D2
:101B90000E94400B80931A03811136C081E30E949A
:101BA000F70A80931A03882321F0813069F585E0D4
:101BB000089580911B0381111AC00E94900A80939E
:101BC0001A03813011F486E008958835E9F4809194
:101BD000BB0080931C0381E08093BC068093BB060E
:101BE0000E94CC0A80931A0381110BC0089581E0F2
:101BF0000E94900A80931A03813029F3803539F3CB
:101C00000895813009F487E0089540EF61EE88E19E
:101C10000E944C0C0E94C20D0E94B20D80958170F2
:101C20000895CF93DF93EC0118828091BA06882340
:101C300019F0813071F01CC00E94050E8823C1F09C
:101C400084EB0E94210C8091BA068F5F8093BA06C4
:101C50000FC00E94050E882359F01092BA060E9408
:101C6000C20D0E94B20D86958170888381E001C00B
:101C700080E0DF91CF910895CF93C82F0E94050E89
:101C8000882331F04C2F65EA88E10E944C0C81E0FA
:101C9000CF910895CF93DF93EC0118828091B9061C
:101CA000882319F0813071F01FC00E94050E88232F
:101CB000D9F086E90E94210C8091B9068F5F80934C
:101CC000B90612C00E94050E882371F01092B90661
:101CD00041EE61EE88E10E944C0C0E94C20D0E9410
:101CE000B20D888381E001C080E0DF91CF9108953B
:101CF00020910401283041F485E50E943C0E8823A0
:101D0000A9F01092040110C0FC01E20FF11D8081C6
:101D10000E943C0E882351F0909104019F5F9093A4
:101D2000040181E0983011F080E0089508958FEF6C
:101D30008093B6061092B706E6EBF6E0129286E0C4
:101D4000EE3AF807D9F708950C94670A8F929F929C
:101D5000AF92BF920F931F93CF93DF93CDB7DEB7B0
:101D6000A1970FB6F894DEBF0FBECDBF19A24230C7
:101D700008F44AE08E010F5D1F4F842E912CA12C98
:101D8000B12CA50194010E94DA18E62FB901CA010D
:101D900001501109EA3014F4E05D01C0E95CD8019A
:101DA000EC93232B242B252B61F7C8010E94670A93
:101DB000A1960FB6F894DEBF0FBECDBFDF91CF91D5
:101DC0001F910F91BF90AF909F908F900895833097
:101DD00081F028F4813099F08230A1F008958730A5
:101DE000A9F08830B9F08430D1F4809180008F7DE3
:101DF00003C0809180008F7780938000089584B520
:101E00008F7702C084B58F7D84BD08958091B00026
:101E10008F7703C08091B0008F7D8093B0000895CC
:101E2000CF93DF9300D000D0CDB7DEB7AE014F5FC8
:101E30005F4F64E088E30E94830B9981392F3295CC
:101E4000369536953370811122C04B812C819F735A
:101E5000892F90E0982F88275A81852B9093DA0359
:101E60008093D90388E0489FA0011124822F90E03D
:101E700065E0959587956A95E1F7842B952B90936E
:101E8000DC038093DB0381E0809336070AC0109265
:101E9000DA031092D9031092DC031092DB03109244
:101EA0003607832F0F900F900F900F90DF91CF91F7
:101EB000089580912307A4E2B7E029E0280F821754
:101EC00041F0E82FF0E0ED51F94F90819D938F5F45
:101ED000F6CF809323070895CF93C82F84E20E9402
:101EE000510882E50E9451088EE30E945108109229
:101EF000E2068C2F0E9451088091E106CF910C944C
:101F00005108CF93DF93282F30E0F901E054FE4FC2
:101F10008491F901E455FE4FD491F901E856FE4F42
:101F2000C491CC2391F081110E94E70EEC2FF0E0D8
:101F3000EE0FFF1FE257FE4FA591B491EC91ED23F8
:101F400081E090E021F480E002C080E090E0DF9149
:101F5000CF9108951F93CF93DF93282F30E0F9019D
:101F6000E054FE4F8491F901E455FE4FD491F901FC
:101F7000E856FE4FC491CC23C1F0162F81110E9468
:101F8000E70EEC2FF0E0EE0FFF1FEC57FE4FA59190
:101F9000B4919FB7F894111104C08C91D095D823B7
:101FA00002C0EC91DE2BDC939FBFDF91CF911F919C
:101FB0000895CF93DF9390E0FC01E455FE4F249108
:101FC000FC01E856FE4F8491882361F190E0880F70
:101FD000991FFC01E658FE4FC591D491FC01EC57C6
:101FE000FE4FA591B491611109C09FB7F894888103
:101FF000209582238883EC912E230BC0623061F4FC
:102000009FB7F8948881322F309583238883EC9191
:102010002E2B2C939FBF06C08FB7F894E8812E2BF0
:1020200028838FBFDF91CF910895CF93DF93E4E2B0
:10203000F7E01182108213821282158214821782B5
:102040001682E091A006F0E0CF01880F991FE80FFB
:10205000F91FE354F94F80818F7B8083C2E9D6E07A
:10206000188262E083E00E94D90FE0919D06F0E0C3
:10207000CF01880F991FE80FF91FE354F94F8081B2
:102080008F7B8083198262E084E00E94D90FE09107
:102090009A06F0E0CF01880F991FE80FF91FE3546B
:1020A000F94F80818F7B80831A8262E085E00E94F5
:1020B000D90FE0919706F0E0CF01880F991FE80F44
:1020C000F91FE354F94F80818F7B80831B8262E08C
:1020D00088E0DF91CF910C94D90F3FB7F8948091AD
:1020E000720790917307A0917407B091750726B598
:1020F000A89B05C02F3F19F00196A11DB11D3FBF40
:10210000BA2FA92F982F8827820F911DA11DB11DCD
:10211000BC01CD0142E0660F771F881F991F4A95C9
:10212000D1F708958F929F92AF92BF92CF92DF9294
:10213000EF92FF926B017C010E946D104B015C01DC
:10214000C114D104E104F104F1F00E946D10DC012E
:10215000CB0188199909AA09BB09883E9340A105BA
:10216000B10570F321E0C21AD108E108F10888EE48
:10217000880E83E0981EA11CB11CC114D104E10497
:10218000F10419F7DDCFFF90EF90DF90CF90BF9073
:10219000AF909F908F9008952FB7F89460916E073D
:1021A00070916F0780917007909171072FBF08950C
:1021B0001F920F920FB60F9211242F933F938F937C
:1021C0009F93AF93BF9380916E0790916F07A091FB
:1021D0007007B091710730916D0723E0230F2D3701
:1021E00020F40196A11DB11D05C026E8230F02961B
:1021F000A11DB11D20936D0780936E0790936F070B
:10220000A0937007B0937107809172079091730744
:10221000A0917407B09175070196A11DB11D80931F
:10222000720790937307A0937407B0937507BF91DB
:10223000AF919F918F913F912F910F900FBE0F9073
:102240001F901895CF93DF93CDB7DEB76C970FB67D
:10225000F894DEBF0FBECDBF789484B5826084BD94
:1022600084B5816084BD85B5826085BD85B581609A
:1022700085BD80916E00816080936E001092810018
:1022800080918100826080938100809181008160D3
:102290008093810080918000816080938000809194
:1022A000B10084608093B1008091B0008160809320
:1022B000B00080917A00846080937A0080917A00E7
:1022C000826080937A0080917A00816080937A00A6
:1022D00080917A00806880937A001092C100E0912A
:1022E0004C03F0914D0372E0E72EE082E091480349
:1022F000F09149031082E0914A03F0914B0387E08B
:10230000808310925403E0915003F091510386E0D2
:102310008083E0914E03F0914F0380818061808340
:10232000E0914E03F0914F03808188608083E091BB
:102330004E03F0914F03808180688083E0914E03CB
:10234000F0914F0380818F7D808360E08FE00E9459
:10235000D90F60E080E10E94D90F60E084E10E9423
:10236000D90F60E085E10E94D90F8FE00E94810FB4
:10237000082F80E10E94810F182F84E10E94810FB5
:10238000F82E110F0F5F100F85E10E94810FFF0CD7
:10239000FF0C1F0D28E0829F100D112410932D07B4
:1023A000E0920B029AE090930C02143019F487E14A
:1023B00091E002C08CE191E00E94790A8DE791E002
:1023C0000E94790A449A459A8091B9008E7F809341
:1023D000B9008091B9008D7F8093B90088E1809326
:1023E000B80084E48093BC00449A459A60E087E09A
:1023F0000E94D90F8091680084608093680080916A
:102400006D00806880936D0060E089E00E94D90FC4
:102410008091680081608093680080916B00826089
:1024200080936B00F89480E090E0FC0163E0EE0F95
:10243000FF1F6A95E1F7EE51FE4F10821182128262
:1024400013821092FA01148215821682178210925A
:10245000FB0101968330910541F778940E94151095
:1024600010923707EDE2F7E0DE01119680E01D9251
:102470001386138A138E13A213A613AA8F5F3196A5
:102480008830A9F70E94970E812C912C54018394D7
:102490006E0189E0C80ED11C33243394CE014996D5
:1024A0000E94110E8823D1F3898D882309F4E4C09A
:1024B0008091B7068111E0C080EF0E943C0E882316
:1024C000D9F3EE24EA94F12C0F2D05950595059589
:1024D000002E000C110B0D55194FF8014385FF2DEF
:1024E000F7707F2E8091B6068F1561F0F8166CF4A8
:1024F00050E002C055954795FA95E2F7242F2170D8
:10250000522E04C05524539401C0512C0E94050E34
:102510008823E1F3452D419568E788E10E944C0C42
:102520000E94050E8823E1F30E94C20D0E94B20DA5
:10253000282F30E0A90195E0559547959A95E1F748
:10254000942F917046E0359527954A95E1F72170D3
:10255000881F8827881FB501A40104C0440F551F98
:10256000661F771F7A94D2F7882329F0F801338504
:10257000432B438706C0342F3095F801438534231D
:102580003387913029F4213041F48BE291E02CC063
:10259000211103C0811101C0EF2CF394F0E4FF126C
:1025A00093CFE092B606AEEAB6E0FE0131968D9189
:1025B0008193EC15FD05D9F72FEFE21202C030929E
:1025C000B706E0E098E0915058F0A92FB0E0A2558E
:1025D000B94F8C91E827F0E0E658FF4FE491F3CF34
:1025E000E11105C089E391E00E94790A45C080E4C9
:1025F00091E00E94A40E8E010F5F1F4FF8018191A0
:102600008F01482E512C612C712C803120F48AE1ED
:1026100091E00E94A40E40E1C301B2010E94A60E07
:10262000C016D10659F78DE791E00E94790A898199
:10263000883209F033CF809137078630C0F4F8E054
:102640008F9FA0011124DE01119620E030E09D91C2
:10265000FA01E20FF31FE35DF84F93872F5F3F4FBF
:1026600028303105A1F78F5F8093370717CF8BE4B0
:1026700091E00E94790A12CF0E94970E60E087E2F3
:1026800096E00E94710861E08DEB95E00E94710870
:1026900060E08DEC94E00E94180961E08DED93E01C
:1026A0000E9418090E94100F80913607882321F09C
:1026B0008EE491E00E94790A80916807887F877F85
:1026C0008093680790917406992339F08160809314
:1026D000680780915A068093690780910A068823CB
:1026E00049F0809168078460809368078091F005C5
:1026F00080936B078091A005882349F0809168073B
:102700008260809368078091050580936A078091B5
:10271000B004882349F08091680788608093680737
:102720008091150480936C0760E08AE00E94D90FC5
:102730008EE591E00E94790AB3E02B2E312C11E056
:102740000E94CC10E091C802CE2ED12C29E0C216F6
:10275000D10408F0D3C3F601EC5CFF4F0C94331B9B
:10276000C090C902D090CA02E090CB02F090CC0297
:10277000DC01CB018C199D09AE09BF09843F914052
:10278000A105B10508F09DC060912407709125074F
:102790006115710569F080EA96E00E94170363E015
:1027A00070E080EA96E00E949A031093920613C0AC
:1027B000E091A006F0E0CF01880F991FE80FF91F04
:1027C000E354F94F80818F7B80831092920662E000
:1027D00083E00E94D90F6091260770912707611549
:1027E000710569F08DE996E00E94170364E070E0DE
:1027F0008DE996E00E949A031093930613C0E0912E
:102800009D06F0E0CF01880F991FE80FF91FE354F0
:10281000F94F80818F7B80831092930662E084E081
:102820000E94D90F609128077091290761157105E1
:1028300069F087E996E00E94170368E070E087E995
:1028400096E00E949A031093950613C0E0919706B4
:10285000F0E0CF01880F991FE80FF91FE354F94FFB
:1028600080818F7B80831092950662E088E00E94D1
:10287000D90F60912A0770912B076115710569F0D6
:102880008AE996E00E94170365E070E08AE996E025
:102890000E949A031093940631C3E0919A06F0E0E7
:1028A000CF01880F991FE80FF91FE354F94F80817A
:1028B0008F7B80831092940662E085E00E94D90F9E
:1028C0001DC30E9415101AC38091A005882319F01A
:1028D0000091CD0401C000E08091B004882321F074
:1028E0008091DD03811101E08091C70200FB80F936
:1028F0008093C702E0902C07F12C8AE00E94810FA0
:102900002091C702E816F90611F4226001C02D7F5C
:102910002093C7028091C70281FB222720F9909162
:102920006202291761F081FF0AC088EE93E090935C
:1029300061028093600284E691E00E94790A8091AE
:10294000C7028695817080936202E0906002F090E9
:1029500061021E141F04BCF40E94CC1080905C0223
:1029600090905D02A0905E02B0905F02DC01CB010E
:1029700088199909AA09BB09E81AF90AF0926102B3
:10298000E092600201E061E08EE00E94D90F61E018
:1029900081E10E94D90F602F8EE00E94AA0F602F64
:1029A00081E10E94AA0F0E94CC1060935C02709398
:1029B0005D0280935E0290935F02A0C22091370770
:1029C000222309F49BC2909101028091000291118F
:1029D00031C0821730F50091FF01013091F018F0FD
:1029E0000230A1F08BC2CE0101960E94110E882305
:1029F00009F484C28091FF018F5F8093FF01902FC3
:102A000096C0E8E08E9FC001112430C084E40E948B
:102A10003C0E882309F472C21092FF0180910002DB
:102A200078C010920002109301021093FE010E94E0
:102A30006D1064C2821708F070C09091FF0192304F
:102A4000D1F050F4992369F0913009F057C2F8E0C1
:102A50008F9FC00111240AC0933089F09430E1F0B7
:102A60004DC2CE0101960E94110E0DC0885C984F98
:102A70000E94780E08C08EEB0E943C0E04C08DEFC1
:102A800091E00E944A0E882309F438C28091FF0128
:102A90008F5F8093FF0132C28CEF91E00E944A0E5B
:102AA000882309F42BC21092FF01E090FC01F12C65
:102AB000FE2CEE248091FD01E82AB7010F2C000CBA
:102AC000880B990B0E94F11920E030E040E85DE3AB
:102AD0000E94A61A4B015C0120E030E040E251EC7C
:102AE0000E94781987FD03C0EF20E09431F4109222
:102AF000FE018AE691E00E94790A8091000294E04A
:102B0000899FF0011124EC5BFD4F80829182A282AB
:102B1000B3828F5F80930002F1C11092000291E0B6
:102B20008091FE01811101C090E010920102992371
:102B300009F4E4C1E4E4F2E0A7E8B2E04191519184
:102B4000619171914D935D936D937D938CE592E0CE
:102B50008E179F0799F7D2C180913607882309F411
:102B6000CDC10E94100F8111C9C18091D9039091EC
:102B7000DA039093A00280939F028091DB039091EF
:102B8000DC039093A2028093A102B8C120E030E060
:102B900040E05FE36091830270918402809185023E
:102BA000909186020E94A61A6B017C01F894E09134
:102BB000FA0198E0E99FF0011124EE51FE4F808068
:102BC0009180A280B3808091FA0190E00496B101D7
:102BD0000E941F1BFC0133E0EE0FFF1F3A95E1F747
:102BE000EE51FE4F408051806280738078940E9445
:102BF0006D10DC01CB0188199909AA09BB09813E36
:102C00009349A440B105D0F4C501B4016419750914
:102C1000860997090E94EF194B015C0120E030E022
:102C2000A9010E947819882349F0A501940160E068
:102C300074E284EF99E40E947D1903C060E070E0C3
:102C4000CB0120E030E040E05FE30E94A61AA7013C
:102C500096010E940C196093830270938402809302
:102C600085029093860220E030E040E05FE36091CF
:102C7000C3027091C4028091C5029091C6020E9465
:102C8000A61A6B017C01F894E091FB0128E0E29F19
:102C9000F0011124EE51FE4F84809580A680B7800C
:102CA0008091FB0190E00496B1010E941F1BFC0182
:102CB00023E0EE0FFF1F2A95E1F7EE51FE4F44800F
:102CC00055806680778078940E946D10DC01CB017E
:102CD00088199909AA09BB09813E9349A440B10505
:102CE000D0F4C501B40164197509860997090E94D9
:102CF000EF194B015C0120E030E0A9010E94781936
:102D0000882349F0A501940160E074E284EF99E41E
:102D10000E947D1903C060E070E0CB0120E030E04C
:102D200040E05FE30E94A61AA70196010E940C19D9
:102D30006093C3027093C4028093C5029093C6024D
:102D4000DDC080917406882309F4D8C0AE014F5FBE
:102D50005F4FBE01675E7F4F87E296E00E94C70823
:102D6000882309F4CBC0898D9A8DAB8DBC8D80935F
:102D7000670290936802A0936902B0936A02898106
:102D80009A81AB81BC818093630290936402A0938B
:102D90006502B0936602B2C080910A06882309F4E6
:102DA000ADC0AE014F5F5F4FBE01675E7F4F8DEBE1
:102DB00095E00E94C708882309F4A0C089819A8100
:102DC000AB81BC818093A3029093A402A093A5023F
:102DD000B093A602898D9A8DAB8DBC8D8093A7028E
:102DE0009093A802A093A902B093AA0287C08091F1
:102DF000A005882309F482C044E152E0BE016F5F60
:102E00007F4F8DEC94E00E94B809882309F476C0C6
:102E1000CE0101966C019BE6E92E92E0F92EF601B7
:102E200081909190A190B1906F012DEC3CEC4CE41D
:102E30005FE3F70160817181828193810E94A61A0C
:102E40002B013C012DEC3CEC4CE45EE3C501B401EC
:102E50000E94A61A9B01AC01C301B2010E940C1989
:102E6000F70161937193819391937F0183E892E0DD
:102E70008E179F07A1F642C08091B0048823F1F11C
:102E80004CE252E0BE016F5F7F4F8DED93E00E94F8
:102E9000B809882399F1FE0131966F018BEAE82E7B
:102EA00082E0F82EF60181909190A190B1906F018F
:102EB0002DEC3CEC4CE45FE3F70160817181828191
:102EC00093810E94A61A2B013C012DEC3CEC4CE4B2
:102ED0005EE3C501B4010E94A61A9B01AC01C301C7
:102EE000B2010E940C19F701619371938193919340
:102EF0007F01F3ECEF16F2E0FF06A1F68091C80225
:102F000090E0019669E070E00E941F1B8093C80268
:102F100087E00E94810F8093100289E00E94810F58
:102F2000809311028CE393E00E9475010FEF080F6C
:102F3000882309F49FC08CE393E00E945301909191
:102F40000F02911104C091E0843259F490C0913085
:102F500019F4823531F485C0923029F48C3309F4A8
:102F600082C090E084C0933071F4813410F0802FDF
:102F7000DDCF80930E028093E20610920D02109234
:102F8000230794E074C0943049F48093E106909153
:102F9000E20689278093E20695E069C0953009F042
:102FA00066C0E0910D0230910E022091E206E31717
:102FB00060F428272093E20621E02E0F20930D02D3
:102FC000F0E0ED51F94F808352C082134EC08091E2
:102FD000E1068130F9F0A0F1823029F1853009F065
:102FE00044C00E94590F85E60E946C0F65E683E697
:102FF00092E00E945F088091E2060E9451080E94C0
:10300000CC106093C9027093CA028093CB02909354
:10301000CC022BC010920A0283E00E946C0F63E086
:103020008AE092E006C080E40E946C0F60E48DE2CA
:1030300097E00E945F088091E2060E94510815C047
:103040008CE30E946C0F68E082E092E00E945F08CF
:1030500064E080E192E00E945F0860E384E192E036
:10306000E8CF92E004C093E002C090E000E09093CB
:103070000F027DCF0E941C0263CBFC0190911503CF
:103080009C30A0F481E0890F809315039083892FF1
:1030900090E0FC01EE0FFF1F8E0F9F1FFC01E35419
:1030A000F94F88EB9BE09283818308958FEF8083B3
:1030B0000895ECE3F3E01382128288EE93E0A0E03F
:1030C000B0E084839583A683B78389E091E0918300
:1030D000808385EC90E09587848784EC90E09787E7
:1030E000868780EC90E0918B808B81EC90E0938BD5
:1030F000828B82EC90E0958B848B86EC90E0978BB2
:10310000868B118E128E138E148E88E28093270682
:10311000109274068093BD0510920A068093CE0427
:103120001092A0058093DE031092B00480EA96E02E
:103130000E943D188DE996E00E943D188AE996E0CC
:103140000E943D1887E996E00E943D180C94970E66
:10315000052E97FB1EF400940E94BF1857FD07D060
:103160000E94DA1807FC03D04EF40C94BF18509557
:103170004095309521953F4F4F4F5F4F0895909563
:103180008095709561957F4F8F4F9F4F08950E9456
:10319000FC18A59F900DB49F900DA49F800D911DCC
:1031A00011240895B7FF0C94C7180E94C718821BFA
:1031B000930B0895A1E21A2EAA1BBB1BFD010DC0A3
:1031C000AA1FBB1FEE1FFF1FA217B307E407F507D7
:1031D00020F0A21BB30BE40BF50B661F771F881FB3
:1031E000991F1A9469F760957095809590959B0149
:1031F000AC01BD01CF010895A29FB001B39FC001F2
:10320000A39F700D811D1124911DB29F700D811D12
:103210001124911D08955058BB27AA270E942319F5
:103220000C94671A0E94591A38F00E94601A20F014
:1032300039F49F3F19F426F40C94561A0EF4E095D5
:10324000E7FB0C94501AE92F0E94781A58F3BA172A
:10325000620773078407950720F079F4A6F50C94AC
:103260009A1A0EF4E0950B2EBA2FA02D0B01B9017E
:1032700090010C01CA01A0011124FF27591B99F0EC
:10328000593F50F4503E68F11A16F040A22F232FF8
:10329000342F4427585FF3CF469537952795A79548
:1032A000F0405395C9F77EF41F16BA0B620B730BEF
:1032B000840BBAF09150A1F0FF0FBB1F661F771F60
:1032C000881FC2F70EC0BA0F621F731F841F48F415
:1032D000879577956795B795F7959E3F08F0B0CF9E
:1032E0009395880F08F09927EE0F97958795089585
:1032F0000E942C1A08F481E008950E9491190C9400
:10330000671A0E94601A58F00E94591A40F029F476
:103310005F3F29F00C94501A51110C949B1A0C9495
:10332000561A0E94781A68F39923B1F3552391F342
:10333000951B550BBB27AA2762177307840738F024
:103340009F5F5F4F220F331F441FAA1FA9F335D081
:103350000E2E3AF0E0E832D091505040E695001C35
:10336000CAF72BD0FE2F29D0660F771F881FBB1FEF
:10337000261737074807AB07B0E809F0BB0B802DCD
:10338000BF01FF2793585F4F3AF09E3F510578F0F9
:103390000C94501A0C949B1A5F3FE4F3983ED4F3BC
:1033A000869577956795B795F7959F5FC9F7880FCD
:1033B000911D9695879597F90895E1E0660F771F1F
:1033C000881FBB1F621773078407BA0720F0621BB0
:1033D000730B840BBA0BEE1F88F7E0950895E89401
:1033E00009C097FB3EF490958095709561957F4F4D
:1033F0008F4F9F4F9923A9F0F92F96E9BB279395FB
:10340000F695879577956795B795F111F8CFFAF40A
:10341000BB0F11F460FF1BC06F5F7F4F8F4F9F4F3B
:1034200016C0882311F096E911C0772321F09EE899
:10343000872F762F05C0662371F096E8862F70E0FF
:1034400060E02AF09A95660F771F881FDAF7880FD9
:103450009695879597F90895990F0008550FAA0B2F
:10346000E0E8FEEF16161706E807F907C0F0121697
:103470001306E407F50798F0621B730B840B950B9A
:1034800039F40A2661F0232B242B252B21F40895EF
:103490000A2609F4A140A6958FEF811D811D08958C
:1034A00097F99F6780E870E060E008959FEF80ECF7
:1034B000089500240A94161617061806090608959A
:1034C00000240A9412161306140605060895092E00
:1034D0000394000C11F4882352F0BB0F40F4BF2B6F
:1034E00011F460FF04C06F5F7F4F8F4F9F4F0895AF
:1034F00057FD9058440F551F59F05F3F71F04795A5
:10350000880F97FB991F61F09F3F79F08795089589
:10351000121613061406551FF2CF4695F1DF08C0A8
:10352000161617061806991FF1CF869571056105C5
:1035300008940895E894BB2766277727CB0197F96D
:1035400008950E942C1A08F48FEF08950E94B91A6A
:103550000C94671A0E94591A38F00E94601A20F0E1
:10356000952311F00C94501A0C94561A11240C94B3
:103570009B1A0E94781A70F3959FC1F3950F50E043
:10358000551F629FF001729FBB27F00DB11D639F15
:10359000AA27F00DB11DAA1F649F6627B00DA11DBB
:1035A000661F829F2227B00DA11D621F739FB00D61
:1035B000A11D621F839FA00D611D221F749F3327D1
:1035C000A00D611D231F849F600D211D822F762F6A
:1035D0006A2F11249F5750409AF0F1F088234AF047
:1035E000EE0FFF1FBB1F661F771F881F91505040B3
:1035F000A9F79E3F510580F00C94501A0C949B1A29
:103600005F3FE4F3983ED4F3869577956795B79539
:10361000F795E7959F5FC1F7FE2B880F911D969553
:10362000879597F90895991B79E004C0991F96171B
:1036300008F0961B881F7A95C9F78095089597FB27
:10364000072E16F4009407D077FD09D00E94391B8D
:1036500007FC05D03EF4909581959F4F0895709595
:1036600061957F4F0895EE0FFF1F0590F491E02DB7
:103670000994AA1BBB1B51E107C0AA1FBB1FA617B9
:10368000B70710F0A61BB70B881F991F5A95A9F70B
:1036900080959095BC01CD01089581E090E0F8946B
:0836A0000C94521BF894FFCFBB
:1036A800150115010800000000AD0116014401FADA
:1036B80001750153016701313738300057726F6E59
:1036C80067206669726D77617265006F6E6557690C
:1036D8007265204572726F72003177204352430041
:1036E8004F6E6557697265203078005450005072EB
:1036F8002E2073656E2E2064657465632E005265F6
:103708006164790053544154450054636F6D004916
:1037180032433C2D3E5350492120000D0A00746964
:103728006D6F75742E2E2E00454550524F4D002D4D
:103738004F4B20002D43524321200050530041207D
:10374800004220004944210058004C4300435243A2
:103758002100493243206C6F636B7570004144430C
:103768002D65727221004144432D74696D6F757423
:1037780021004144436761696E21004144432D4F54
:023788004B00F4
:00000001FF
